{
  "address": "0x43D9aC4E1609d78d819319364382fe5F5f92D4C0",
  "abi": [
    {
      "inputs": [],
      "name": "AccessControlBadConfirmation",
      "type": "error"
    },
    {
      "inputs": [
        {
          "internalType": "address",
          "name": "account",
          "type": "address"
        },
        {
          "internalType": "bytes32",
          "name": "neededRole",
          "type": "bytes32"
        }
      ],
      "name": "AccessControlUnauthorizedAccount",
      "type": "error"
    },
    {
      "inputs": [
        {
          "internalType": "address",
          "name": "add",
          "type": "address"
        }
      ],
      "name": "AddressNotExist",
      "type": "error"
    },
    {
      "inputs": [],
      "name": "EmptyDescriptionNotAllowed",
      "type": "error"
    },
    {
      "inputs": [],
      "name": "Unauthorized",
      "type": "error"
    },
    {
      "anonymous": false,
      "inputs": [
        {
          "indexed": false,
          "internalType": "address",
          "name": "newAddress",
          "type": "address"
        }
      ],
      "name": "AddAddress",
      "type": "event"
    },
    {
      "anonymous": false,
      "inputs": [
        {
          "indexed": false,
          "internalType": "address",
          "name": "account",
          "type": "address"
        },
        {
          "indexed": false,
          "internalType": "address",
          "name": "contractAddress",
          "type": "address"
        },
        {
          "indexed": false,
          "internalType": "string",
          "name": "functionSig",
          "type": "string"
        }
      ],
      "name": "PermissionGranted",
      "type": "event"
    },
    {
      "anonymous": false,
      "inputs": [
        {
          "indexed": false,
          "internalType": "address",
          "name": "account",
          "type": "address"
        },
        {
          "indexed": false,
          "internalType": "address",
          "name": "contractAddress",
          "type": "address"
        },
        {
          "indexed": false,
          "internalType": "string",
          "name": "functionSig",
          "type": "string"
        }
      ],
      "name": "PermissionRevoked",
      "type": "event"
    },
    {
      "anonymous": false,
      "inputs": [
        {
          "indexed": false,
          "internalType": "address",
          "name": "existingAddress",
          "type": "address"
        }
      ],
      "name": "RemoveAddress",
      "type": "event"
    },
    {
      "anonymous": false,
      "inputs": [
        {
          "indexed": true,
          "internalType": "bytes32",
          "name": "role",
          "type": "bytes32"
        },
        {
          "indexed": true,
          "internalType": "bytes32",
          "name": "previousAdminRole",
          "type": "bytes32"
        },
        {
          "indexed": true,
          "internalType": "bytes32",
          "name": "newAdminRole",
          "type": "bytes32"
        }
      ],
      "name": "RoleAdminChanged",
      "type": "event"
    },
    {
      "anonymous": false,
      "inputs": [
        {
          "indexed": true,
          "internalType": "bytes32",
          "name": "role",
          "type": "bytes32"
        },
        {
          "indexed": true,
          "internalType": "address",
          "name": "account",
          "type": "address"
        },
        {
          "indexed": true,
          "internalType": "address",
          "name": "sender",
          "type": "address"
        }
      ],
      "name": "RoleGranted",
      "type": "event"
    },
    {
      "anonymous": false,
      "inputs": [
        {
          "indexed": true,
          "internalType": "bytes32",
          "name": "role",
          "type": "bytes32"
        },
        {
          "indexed": true,
          "internalType": "address",
          "name": "account",
          "type": "address"
        },
        {
          "indexed": true,
          "internalType": "address",
          "name": "sender",
          "type": "address"
        }
      ],
      "name": "RoleRevoked",
      "type": "event"
    },
    {
      "anonymous": false,
      "inputs": [
        {
          "indexed": false,
          "internalType": "address",
          "name": "existingAddress",
          "type": "address"
        }
      ],
      "name": "UpdateDescription",
      "type": "event"
    },
    {
      "inputs": [],
      "name": "DEFAULT_ADMIN_ROLE",
      "outputs": [
        {
          "internalType": "bytes32",
          "name": "",
          "type": "bytes32"
        }
      ],
      "stateMutability": "view",
      "type": "function"
    },
    {
      "inputs": [
        {
          "internalType": "address",
          "name": "newAddress",
          "type": "address"
        },
        {
          "internalType": "string",
          "name": "description",
          "type": "string"
        }
      ],
      "name": "addAddresses",
      "outputs": [],
      "stateMutability": "nonpayable",
      "type": "function"
    },
    {
      "inputs": [
        {
          "internalType": "address",
          "name": "",
          "type": "address"
        }
      ],
      "name": "addDescription",
      "outputs": [
        {
          "internalType": "string",
          "name": "",
          "type": "string"
        }
      ],
      "stateMutability": "view",
      "type": "function"
    },
    {
      "inputs": [
        {
          "internalType": "bytes32",
          "name": "role",
          "type": "bytes32"
        }
      ],
      "name": "getRoleAdmin",
      "outputs": [
        {
          "internalType": "bytes32",
          "name": "",
          "type": "bytes32"
        }
      ],
      "stateMutability": "view",
      "type": "function"
    },
    {
      "inputs": [
        {
          "internalType": "address",
          "name": "contractAddress",
          "type": "address"
        },
        {
          "internalType": "string",
          "name": "functionSig",
          "type": "string"
        },
        {
          "internalType": "address",
          "name": "accountToPermit",
          "type": "address"
        }
      ],
      "name": "giveCallPermission",
      "outputs": [],
      "stateMutability": "nonpayable",
      "type": "function"
    },
    {
      "inputs": [
        {
          "internalType": "bytes32",
          "name": "role",
          "type": "bytes32"
        },
        {
          "internalType": "address",
          "name": "account",
          "type": "address"
        }
      ],
      "name": "grantRole",
      "outputs": [],
      "stateMutability": "nonpayable",
      "type": "function"
    },
    {
      "inputs": [
        {
          "internalType": "bytes32",
          "name": "role",
          "type": "bytes32"
        },
        {
          "internalType": "address",
          "name": "account",
          "type": "address"
        }
      ],
      "name": "hasRole",
      "outputs": [
        {
          "internalType": "bool",
          "name": "",
          "type": "bool"
        }
      ],
      "stateMutability": "view",
      "type": "function"
    },
    {
      "inputs": [
        {
          "internalType": "address",
          "name": "contractAddress",
          "type": "address"
        },
        {
          "internalType": "address",
          "name": "account",
          "type": "address"
        },
        {
          "internalType": "string",
          "name": "functionSig",
          "type": "string"
        }
      ],
      "name": "isAllowedToCall",
      "outputs": [
        {
          "internalType": "bool",
          "name": "",
          "type": "bool"
        }
      ],
      "stateMutability": "view",
      "type": "function"
    },
    {
      "inputs": [
        {
          "internalType": "address",
          "name": "existingAddress",
          "type": "address"
        }
      ],
      "name": "removeAddress",
      "outputs": [],
      "stateMutability": "nonpayable",
      "type": "function"
    },
    {
      "inputs": [
        {
          "internalType": "bytes32",
          "name": "role",
          "type": "bytes32"
        },
        {
          "internalType": "address",
          "name": "callerConfirmation",
          "type": "address"
        }
      ],
      "name": "renounceRole",
      "outputs": [],
      "stateMutability": "nonpayable",
      "type": "function"
    },
    {
      "inputs": [
        {
          "internalType": "address",
          "name": "contractAddress",
          "type": "address"
        },
        {
          "internalType": "string",
          "name": "functionSig",
          "type": "string"
        },
        {
          "internalType": "address",
          "name": "accountToRevoke",
          "type": "address"
        }
      ],
      "name": "revokeCallPermission",
      "outputs": [],
      "stateMutability": "nonpayable",
      "type": "function"
    },
    {
      "inputs": [
        {
          "internalType": "bytes32",
          "name": "role",
          "type": "bytes32"
        },
        {
          "internalType": "address",
          "name": "account",
          "type": "address"
        }
      ],
      "name": "revokeRole",
      "outputs": [],
      "stateMutability": "nonpayable",
      "type": "function"
    },
    {
      "inputs": [
        {
          "internalType": "bytes4",
          "name": "interfaceId",
          "type": "bytes4"
        }
      ],
      "name": "supportsInterface",
      "outputs": [
        {
          "internalType": "bool",
          "name": "",
          "type": "bool"
        }
      ],
      "stateMutability": "view",
      "type": "function"
    },
    {
      "inputs": [
        {
          "internalType": "address",
          "name": "existingAddress",
          "type": "address"
        },
        {
          "internalType": "string",
          "name": "description",
          "type": "string"
        }
      ],
      "name": "updateDescription",
      "outputs": [],
      "stateMutability": "nonpayable",
      "type": "function"
    }
  ],
  "transactionHash": "0x0e9db42142b004b56d2bf7839781a9e48254a636b3accf3e85630d838fe657e0",
  "args": [],
  "numDeployments": 1,
  "solcInputHash": "be9ded52fec91bd9f31ce6db26bc68fe",
  "bytecode": "0x6080604052348015600f57600080fd5b506019600033601e565b5060c7565b6000828152602081815260408083206001600160a01b038516845290915281205460ff1660bd576000838152602081815260408083206001600160a01b03861684529091529020805460ff1916600117905560763390565b6001600160a01b0316826001600160a01b0316847f2f8788117e7eff1d82e926ec794901d17c78024a50270940304540a733656f0d60405160405180910390a450600160c1565b5060005b92915050565b61136f806100d66000396000f3fe608060405234801561001057600080fd5b50600436106100ea5760003560e01c8063584f6b601161008c57806391d148541161006657806391d14854146101e2578063a217fddf14610226578063a70cf6fa1461022e578063d547741f1461024e57600080fd5b8063584f6b60146101a957806376ac0205146101bc5780638bbb2cf2146101cf57600080fd5b80632f2ff15d116100c85780632f2ff15d1461015b57806336568abe146101705780634ba79dfe14610183578063545f7a321461019657600080fd5b806301ffc9a7146100ef57806308c4634214610117578063248a9ca31461012a575b600080fd5b6101026100fd366004610d70565b610261565b60405190151581526020015b60405180910390f35b610102610125366004610e0a565b6102fa565b61014d610138366004610edc565b60009081526020819052604090206001015490565b60405190815260200161010e565b61016e610169366004610ef5565b6103cb565b005b61016e61017e366004610ef5565b6103f6565b61016e610191366004610f21565b610454565b61016e6101a4366004610f85565b610594565b61016e6101b7366004610f85565b610611565b61016e6101ca366004610fea565b61067f565b61016e6101dd366004610fea565b610879565b6101026101f0366004610ef5565b60009182526020828152604080842073ffffffffffffffffffffffffffffffffffffffff93909316845291905290205460ff1690565b61014d600081565b61024161023c366004610f21565b6109cf565b60405161010e9190611061565b61016e61025c366004610ef5565b610a69565b60007fffffffff0000000000000000000000000000000000000000000000000000000082167f7965db0b0000000000000000000000000000000000000000000000000000000014806102f457507f01ffc9a7000000000000000000000000000000000000000000000000000000007fffffffff000000000000000000000000000000000000000000000000000000008316145b92915050565b6000808483604051602001610310929190611094565b60408051601f198184030181529181528151602092830120600081815280845282812073ffffffffffffffffffffffffffffffffffffffff8916825290935291205490915060ff16156103675760019150506103c4565b60008360405160200161037b929190611094565b60408051808303601f190181529181528151602092830120600090815280835281812073ffffffffffffffffffffffffffffffffffffffff8816825290925290205460ff169150505b9392505050565b6000828152602081905260409020600101546103e681610a8e565b6103f08383610a9b565b50505050565b73ffffffffffffffffffffffffffffffffffffffff81163314610445576040517f6697b23200000000000000000000000000000000000000000000000000000000815260040160405180910390fd5b61044f8282610b97565b505050565b6104926040518060400160405280601681526020017f72656d6f76654164647265737328616464726573732900000000000000000000815250610c52565b73ffffffffffffffffffffffffffffffffffffffff8116600090815260016020526040902080546104c2906110df565b905060000361051a576040517f7d6b9c7100000000000000000000000000000000000000000000000000000000815273ffffffffffffffffffffffffffffffffffffffff821660048201526024015b60405180910390fd5b73ffffffffffffffffffffffffffffffffffffffff8116600090815260016020526040812061054891610d22565b60405173ffffffffffffffffffffffffffffffffffffffff821681527f1216bc7305ad20d1e54ff9f2431a7e0cabd24f593b48a94b160dcb1c1312f1aa9060200160405180910390a150565b60008484846040516020016105ab93929190611132565b6040516020818303038152906040528051906020012090506105cd8183610a69565b7f55426a61e90ac7d7d1fc886b67b420ade8c8b535e68d655394bc271e3a12b8e2828686866040516106029493929190611171565b60405180910390a15050505050565b600084848460405160200161062893929190611132565b60405160208183030381529060405280519060200120905061064a81836103cb565b7f69c5ce2d658fea352a2464f87ffbe1f09746c918a91da0994044c3767d641b3f828686866040516106029493929190611171565b6106bd6040518060400160405280601c81526020017f61646441646472657373657328616464726573732c737472696e672900000000815250610c52565b823b610725576040517f08c379a000000000000000000000000000000000000000000000000000000000815260206004820152601360248201527f4e6f7420612076616c69642061646472657373000000000000000000000000006044820152606401610511565b73ffffffffffffffffffffffffffffffffffffffff831660009081526001602052604090208054610755906110df565b1590506107be576040517f08c379a000000000000000000000000000000000000000000000000000000000815260206004820152601660248201527f4164647265737320616c726561647920657869737473000000000000000000006044820152606401610511565b60008190036107f9576040517f5b4b6e4400000000000000000000000000000000000000000000000000000000815260040160405180910390fd5b73ffffffffffffffffffffffffffffffffffffffff8316600090815260016020526040902061082982848361121b565b5060405173ffffffffffffffffffffffffffffffffffffffff841681527ff479aa03776602139ad8a1cdaad9e683aa9a395b18958e3a69c05efb0fdb9df3906020015b60405180910390a1505050565b61089a60405180606001604052806021815260200161131960219139610c52565b60008190036108d5576040517f5b4b6e4400000000000000000000000000000000000000000000000000000000815260040160405180910390fd5b73ffffffffffffffffffffffffffffffffffffffff831660009081526001602052604090208054610905906110df565b9050600003610958576040517f7d6b9c7100000000000000000000000000000000000000000000000000000000815273ffffffffffffffffffffffffffffffffffffffff84166004820152602401610511565b73ffffffffffffffffffffffffffffffffffffffff8316600090815260016020526040902061098882848361121b565b5060405173ffffffffffffffffffffffffffffffffffffffff841681527f19cfd1d576e151624ef11855436d02f6e366b857e3f927ba92563cb6892307b89060200161086c565b600160205260009081526040902080546109e8906110df565b80601f0160208091040260200160405190810160405280929190818152602001828054610a14906110df565b8015610a615780601f10610a3657610100808354040283529160200191610a61565b820191906000526020600020905b815481529060010190602001808311610a4457829003601f168201915b505050505081565b600082815260208190526040902060010154610a8481610a8e565b6103f08383610b97565b610a988133610c9c565b50565b60008281526020818152604080832073ffffffffffffffffffffffffffffffffffffffff8516845290915281205460ff16610b8f5760008381526020818152604080832073ffffffffffffffffffffffffffffffffffffffff86168452909152902080547fffffffffffffffffffffffffffffffffffffffffffffffffffffffffffffff00166001179055610b2d3390565b73ffffffffffffffffffffffffffffffffffffffff168273ffffffffffffffffffffffffffffffffffffffff16847f2f8788117e7eff1d82e926ec794901d17c78024a50270940304540a733656f0d60405160405180910390a45060016102f4565b5060006102f4565b60008281526020818152604080832073ffffffffffffffffffffffffffffffffffffffff8516845290915281205460ff1615610b8f5760008381526020818152604080832073ffffffffffffffffffffffffffffffffffffffff8616808552925280832080547fffffffffffffffffffffffffffffffffffffffffffffffffffffffffffffff0016905551339286917ff6391f5c32d9c69d2a47ea670b442974b53935d1edc7fd64eb21e047a839171b9190a45060016102f4565b6000610c5f3033846102fa565b905080610c98576040517f82b4290000000000000000000000000000000000000000000000000000000000815260040160405180910390fd5b5050565b60008281526020818152604080832073ffffffffffffffffffffffffffffffffffffffff8516845290915290205460ff16610c98576040517fe2517d3f00000000000000000000000000000000000000000000000000000000815273ffffffffffffffffffffffffffffffffffffffff8216600482015260248101839052604401610511565b508054610d2e906110df565b6000825580601f10610d3e575050565b601f016020900490600052602060002090810190610a9891905b80821115610d6c5760008155600101610d58565b5090565b600060208284031215610d8257600080fd5b81357fffffffff00000000000000000000000000000000000000000000000000000000811681146103c457600080fd5b803573ffffffffffffffffffffffffffffffffffffffff81168114610dd657600080fd5b919050565b7f4e487b7100000000000000000000000000000000000000000000000000000000600052604160045260246000fd5b600080600060608486031215610e1f57600080fd5b610e2884610db2565b9250610e3660208501610db2565b9150604084013567ffffffffffffffff80821115610e5357600080fd5b818601915086601f830112610e6757600080fd5b813581811115610e7957610e79610ddb565b604051601f8201601f19908116603f01168101908382118183101715610ea157610ea1610ddb565b81604052828152896020848701011115610eba57600080fd5b8260208601602083013760006020848301015280955050505050509250925092565b600060208284031215610eee57600080fd5b5035919050565b60008060408385031215610f0857600080fd5b82359150610f1860208401610db2565b90509250929050565b600060208284031215610f3357600080fd5b6103c482610db2565b60008083601f840112610f4e57600080fd5b50813567ffffffffffffffff811115610f6657600080fd5b602083019150836020828501011115610f7e57600080fd5b9250929050565b60008060008060608587031215610f9b57600080fd5b610fa485610db2565b9350602085013567ffffffffffffffff811115610fc057600080fd5b610fcc87828801610f3c565b9094509250610fdf905060408601610db2565b905092959194509250565b600080600060408486031215610fff57600080fd5b61100884610db2565b9250602084013567ffffffffffffffff81111561102457600080fd5b61103086828701610f3c565b9497909650939450505050565b60005b83811015611058578181015183820152602001611040565b50506000910152565b602081526000825180602084015261108081604085016020870161103d565b601f01601f19169190910160400192915050565b7fffffffffffffffffffffffffffffffffffffffff0000000000000000000000008360601b168152600082516110d181601485016020870161103d565b919091016014019392505050565b600181811c908216806110f357607f821691505b60208210810361112c577f4e487b7100000000000000000000000000000000000000000000000000000000600052602260045260246000fd5b50919050565b7fffffffffffffffffffffffffffffffffffffffff0000000000000000000000008460601b168152818360148301376000910160140190815292915050565b600073ffffffffffffffffffffffffffffffffffffffff808716835280861660208401525060606040830152826060830152828460808401376000608084840101526080601f19601f850116830101905095945050505050565b601f82111561044f576000816000526020600020601f850160051c810160208610156111f45750805b601f850160051c820191505b8181101561121357828155600101611200565b505050505050565b67ffffffffffffffff83111561123357611233610ddb565b6112478361124183546110df565b836111cb565b6000601f84116001811461129957600085156112635750838201355b7fffffffffffffffffffffffffffffffffffffffffffffffffffffffffffffffff600387901b1c1916600186901b178355611311565b600083815260209020601f19861690835b828110156112ca57868501358255602094850194600190920191016112aa565b5086821015611305577fffffffffffffffffffffffffffffffffffffffffffffffffffffffffffffffff60f88860031b161c19848701351681555b505060018560011b0183555b505050505056fe7570646174654465736372697074696f6e28616464726573732c737472696e6729a2646970667358221220ec12f64e2efc18d545c68150bbad206ca9a367c44d9a6b69d3431a35ad746fb764736f6c63430008190033",
  "devdoc": {
    "details": "Manages a set of contract addresses with associated descriptions.      Includes functionality for adding, updating, and removing addresses.",
    "errors": {
      "AccessControlBadConfirmation()": [
        {
          "details": "The caller of a function is not the expected one. NOTE: Don't confuse with {AccessControlUnauthorizedAccount}."
        }
      ],
      "AccessControlUnauthorizedAccount(address,bytes32)": [
        {
          "details": "The `account` is missing a role."
        }
      ],
      "AddressNotExist(address)": [
        {
          "params": {
            "add": "The address that does not exist."
          }
        }
      ]
    },
    "events": {
      "AddAddress(address)": {
        "params": {
          "newAddress": "The address that was added."
        }
      },
      "PermissionGranted(address,address,string)": {
        "details": "If contract address is 0x000..0 this means that the account is a default admin of this function and can call any contract function with this signature"
      },
      "RemoveAddress(address)": {
        "params": {
          "existingAddress": "The address that was removed."
        }
      },
      "RoleAdminChanged(bytes32,bytes32,bytes32)": {
        "details": "Emitted when `newAdminRole` is set as ``role``'s admin role, replacing `previousAdminRole` `DEFAULT_ADMIN_ROLE` is the starting admin for all roles, despite {RoleAdminChanged} not being emitted signaling this."
      },
      "RoleGranted(bytes32,address,address)": {
        "details": "Emitted when `account` is granted `role`. `sender` is the account that originated the contract call, an admin role bearer except when using {AccessControl-_setupRole}."
      },
      "RoleRevoked(bytes32,address,address)": {
        "details": "Emitted when `account` is revoked `role`. `sender` is the account that originated the contract call:   - if using `revokeRole`, it is the admin role bearer   - if using `renounceRole`, it is the role bearer (i.e. `account`)"
      },
      "UpdateDescription(address)": {
        "params": {
          "existingAddress": "The address whose description was updated."
        }
      }
    },
    "kind": "dev",
    "methods": {
      "addAddresses(address,string)": {
        "details": "Reverts if the address is zero or already exists.",
        "params": {
          "description": "The description of the address.",
          "newAddress": "The address to be added."
        }
      },
      "getRoleAdmin(bytes32)": {
        "details": "Returns the admin role that controls `role`. See {grantRole} and {revokeRole}. To change a role's admin, use {_setRoleAdmin}."
      },
      "giveCallPermission(address,string,address)": {
        "custom:event": "Emits a {RoleGranted} and {PermissionGranted} events.",
        "details": "this function can be called only from Role Admin or DEFAULT_ADMIN_ROLEif contractAddress is zero address, the account can access the specified function      on **any** contract managed by this ACL",
        "params": {
          "accountToPermit": "account that will be given access to the contract function",
          "contractAddress": "address of contract for which call permissions will be granted",
          "functionSig": "signature e.g. \"functionName(uint256,bool)\""
        }
      },
      "grantRole(bytes32,address)": {
        "details": "Grants `role` to `account`. If `account` had not been already granted `role`, emits a {RoleGranted} event. Requirements: - the caller must have ``role``'s admin role. May emit a {RoleGranted} event."
      },
      "hasRole(bytes32,address)": {
        "details": "Returns `true` if `account` has been granted `role`."
      },
      "isAllowedToCall(address,address,string)": {
        "details": "Since restricted contracts using this function as a permission hook",
        "params": {
          "account": "for which call permissions will be checked",
          "functionSig": "restricted function signature e.g. \"functionName(uint256,bool)\""
        },
        "returns": {
          "_0": "false if the user account cannot call the particular contract function"
        }
      },
      "removeAddress(address)": {
        "details": "Reverts if the address does not exist.",
        "params": {
          "existingAddress": "The address to be removed."
        }
      },
      "renounceRole(bytes32,address)": {
        "details": "Revokes `role` from the calling account. Roles are often managed via {grantRole} and {revokeRole}: this function's purpose is to provide a mechanism for accounts to lose their privileges if they are compromised (such as when a trusted device is misplaced). If the calling account had been revoked `role`, emits a {RoleRevoked} event. Requirements: - the caller must be `callerConfirmation`. May emit a {RoleRevoked} event."
      },
      "revokeCallPermission(address,string,address)": {
        "custom:event": "Emits {RoleRevoked} and {PermissionRevoked} events.",
        "details": "this function can be called only from Role Admin or DEFAULT_ADMIN_ROLE \t\tMay emit a {RoleRevoked} event.",
        "params": {
          "contractAddress": "address of contract for which call permissions will be revoked",
          "functionSig": "signature e.g. \"functionName(uint256,bool)\""
        }
      },
      "revokeRole(bytes32,address)": {
        "details": "Revokes `role` from `account`. If `account` had been granted `role`, emits a {RoleRevoked} event. Requirements: - the caller must have ``role``'s admin role. May emit a {RoleRevoked} event."
      },
      "supportsInterface(bytes4)": {
        "details": "See {IERC165-supportsInterface}."
      },
      "updateDescription(address,string)": {
        "details": "Reverts if the address does not exist.",
        "params": {
          "description": "The new description of the address.",
          "existingAddress": "The address whose description is to be updated."
        }
      }
    },
    "title": "ContractManager",
    "version": 1
  },
  "userdoc": {
    "errors": {
      "AddressNotExist(address)": [
        {
          "notice": "Error indicating that an address does not exist."
        }
      ],
      "EmptyDescriptionNotAllowed()": [
        {
          "notice": "Error indicating empty description is not allowed"
        }
      ],
      "Unauthorized()": [
        {
          "notice": "Error indicating that the caller is not authorized to perform an action."
        }
      ]
    },
    "events": {
      "AddAddress(address)": {
        "notice": "Emitted when a new address is added."
      },
      "PermissionGranted(address,address,string)": {
        "notice": "Emitted when an account is given a permission to a certain contract function"
      },
      "PermissionRevoked(address,address,string)": {
        "notice": "Emitted when an account is revoked a permission to a certain contract function"
      },
      "RemoveAddress(address)": {
        "notice": "Emitted when an existing address is removed."
      },
      "UpdateDescription(address)": {
        "notice": "Emitted when an existing address's description is updated."
      }
    },
    "kind": "user",
    "methods": {
      "addAddresses(address,string)": {
        "notice": "Adds a new address with its description."
      },
      "addDescription(address)": {
        "notice": "Mapping from contract address to its description."
      },
      "giveCallPermission(address,string,address)": {
        "notice": "Gives a function call permission to one single account"
      },
      "isAllowedToCall(address,address,string)": {
        "notice": "Verifies if the given account can call a contract's guarded function"
      },
      "removeAddress(address)": {
        "notice": "Removes an existing address and its description."
      },
      "revokeCallPermission(address,string,address)": {
        "notice": "Revokes an account's permission to a particular function call"
      },
      "updateDescription(address,string)": {
        "notice": "Updates the description of an existing address."
      }
    },
    "version": 1
  },
  "storageLayout": {
    "storage": [
      {
        "astId": 26,
        "contract": "contracts/ContractManager.sol:ContractManager",
        "label": "_roles",
        "offset": 0,
        "slot": "0",
        "type": "t_mapping(t_bytes32,t_struct(RoleData)21_storage)"
      },
      {
        "astId": 603,
        "contract": "contracts/ContractManager.sol:ContractManager",
        "label": "addDescription",
        "offset": 0,
        "slot": "1",
        "type": "t_mapping(t_address,t_string_storage)"
      }
    ],
    "types": {
      "t_address": {
        "encoding": "inplace",
        "label": "address",
        "numberOfBytes": "20"
      },
      "t_bool": {
        "encoding": "inplace",
        "label": "bool",
        "numberOfBytes": "1"
      },
      "t_bytes32": {
        "encoding": "inplace",
        "label": "bytes32",
        "numberOfBytes": "32"
      },
      "t_mapping(t_address,t_bool)": {
        "encoding": "mapping",
        "key": "t_address",
        "label": "mapping(address => bool)",
        "numberOfBytes": "32",
        "value": "t_bool"
      },
      "t_mapping(t_address,t_string_storage)": {
        "encoding": "mapping",
        "key": "t_address",
        "label": "mapping(address => string)",
        "numberOfBytes": "32",
        "value": "t_string_storage"
      },
      "t_mapping(t_bytes32,t_struct(RoleData)21_storage)": {
        "encoding": "mapping",
        "key": "t_bytes32",
        "label": "mapping(bytes32 => struct AccessControl.RoleData)",
        "numberOfBytes": "32",
        "value": "t_struct(RoleData)21_storage"
      },
      "t_string_storage": {
        "encoding": "bytes",
        "label": "string",
        "numberOfBytes": "32"
      },
      "t_struct(RoleData)21_storage": {
        "encoding": "inplace",
        "label": "struct AccessControl.RoleData",
        "members": [
          {
            "astId": 18,
            "contract": "contracts/ContractManager.sol:ContractManager",
            "label": "hasRole",
            "offset": 0,
            "slot": "0",
            "type": "t_mapping(t_address,t_bool)"
          },
          {
            "astId": 20,
            "contract": "contracts/ContractManager.sol:ContractManager",
            "label": "adminRole",
            "offset": 0,
            "slot": "1",
            "type": "t_bytes32"
          }
        ],
        "numberOfBytes": "64"
      }
    }
  }
}